:1000000000000320D101000019440000D14300008A
:10001000D1430000D1430000D1430000D143000090
:10002000D1430000D1430000D14300001944000037
:1000300019440000D14300007D3E0000813E0000D5
:10004000194400001944000019440000194400003C
:10005000194400001944000019440000194400002C
:10006000194400001944000019440000194400001C
:10007000194400001944000019440000194400000C
:1000800019440000194400001944000019440000FC
:1000900019440000194400001944000019440000EC
:1000A000ED5E0000F95E00001944000019440000F4
:1000B00019440000194400001944000019440000CC
:1000C00019440000194400001944000019440000BC
:1000D00019440000194400001944000019440000AC
:1000E000194400001944000019440000194400009C
:1000F000194400001944000019440000194400008C
:10010000194400001944000019440000194400007B
:1001100019440000D94900001944000019440000A6
:10012000194400001944000019440000194400005B
:10013000194400001944000019440000194400004B
:10014000313C00001944000019440000194400002B
:10015000194400001944000019440000194400002B
:100160001944000019440000055F00001944000014
:10017000194400001944000019440000194400000B
:1001800019440000194400001944000019440000FB
:1001900019440000194400001944000019440000EB
:1001A00019440000194400001944000019440000DB
:1001B00019440000194400001944000019440000CB
:1001C00019440000194400001944000019440000BB
:1001D0005C4B4CF2205210B51A804DF628121A8052
:1001E00000BF00BF04F01CF9574B4FF030621A609B
:1001F000564A9A60564ADA60564B4FF470021A60BB
:10020000554B564A1A60564B1A78110703D51A787F
:1002100042F008021A70534B5349AA221A70534AEB
:10022000534B8B4204D252F8040F43F8040BF8E707
:10023000504B514900228B4202D243F8042BFAE77B
:100240004E494F4A002352F8230041F8230001335E
:10025000742BF8D14B4B4C4A802103F8011B93427D
:10026000FBD14A4B454A1A60494B8A221A70A3F5C2
:10027000805324225A70A0221A709A799207FCD5D2
:100280009A79D406FCD4434A937903F00C03082BE3
:10029000FAD1414B60221A7002331A78802AFCD1BD
:1002A0003C4B01221A715D225A719A799006FCD555
:1002B0009979384A4906FBD5384B394919600021EC
:1002C000596020231370937903F00C030C2BFAD19F
:1002D000344B354A1A60354A354C136813F4807331
:1002E00003D123604FF4A8531360324B324A1A6093
:1002F00000225A60072243F8042C304AC3F80C2D20
:1003000062B604F0D9F92368DA0705D52C4804F061
:1003100063F92C4B2C4A1A602C4B1B785B0609D5D1
:10032000284C294B22689A4204D1254804F054F9FC
:100330000023236005F0F8FD04F078F803F0A6FF31
:10034000FEE700BF0E20054030800440823F0400DD
:100350000100002B88ED00E0002008E0030000858C
:1003600002D0074000E00740BC3DFF1FAC6F00001B
:100370003033FF1FBC3DFF1F5845FF1F002EFF1FDE
:100380000000000000E400E064E400E008ED00E0AC
:10039000005006400040064001E007404480044011
:1003A0000000060204800440C010070010D0034083
:1003B00014D0034014E000E01FBF02000000202022
:1003C0008C26245F1CE00340A5C3945A00F007402C
:1003D000FFFFFFFFFFFFFFFFFFFFFFFFFFFFFFFF2D
:1003E000FFFFFFFFFFFFFFFFFFFFFFFFFFFFFFFF1D
:1003F000FFFFFFFFFFFFFFFFFFFFFFFFFFFFFFFF0D
:10040000FFFFFFFFFFFFFFFFFFFFFFFFDEF9FFFF23
:1004100010B5054C237833B9044B13B10448AFF33E
:1004200000800123237010BDBC3DFF1F00000000B1
:10043000A86F0000084B10B51BB108490848AFF37E
:1004400000800848036803B910BD074B002BFBD0A0
:10045000BDE81040184700BF00000000C03DFF1F6E
:10046000A86F0000BC3DFF1F0000000010B504464F
:1004700003F088FB204610BD10B5044B044640F83D
:10048000183B00F081FB204610BD00BF286C000027
:1004900008B50221252004F0B7F80221262004F037
:1004A000B3F80721144800F021FA0E21124800F099
:1004B0006FFA124802F098FB5A21104802F032FC01
:1004C00028210F4803F050FA0A210E4800F010FCD2
:1004D00058B91C210C4805F00DF90C4803F0EEFC4E
:1004E0004FF4FA7004F096F8F3E709490948BDE8BB
:1004F000084002F06DBE00BF3433FF1FD83DFF1F20
:100500000002FF1FAC40FF1FD06A00008033FF1FB6
:10051000F06A0000043EFF1F10B515491548164C3F
:1005200000F010FD0146204603F018FD0821134895
:1005300005F0E0F8252003F02BFE0146204603F0ED
:100540000DFD204603F0BAFC07210D4805F0D2F856
:10055000262003F01DFE0146204603F0FFFC204646
:1005600003F0ACFC0A20BDE8104004F053B800BF13
:10057000F06A0000AC40FF1F8033FF1F006B0000DB
:100580000C6B00002DE9F041404E414D3268DFF820
:100590002C81C5F8008000236B722B612B72EB60FD
:1005A0000AB96EE01A465369002BFBD1556100274A
:1005B000384B6F61AF80EF80AF723748374C2B609C
:1005C00000F0D4FA3248EF662F6702F0B5FD344AE6
:1005D00034492F4805F04CFA022004F118023B463A
:1005E00039462772E760C4F80080607222612746AE
:1005F00000E03A6942F82310627A284801339A42AF
:10060000F7DC3268214B0AB93DE01A465369002BEA
:10061000FBD154610026DFF8A880234B1F48666198
:10062000A680E680A672214F236002F00DFD4046B1
:1006300088F80860C8F80050C8F8044088F80960D5
:10064000C8F80C6088F8106003F068FA144A18497A
:10065000404605F00DFA012338463B727B72FE607E
:100660003D607C603E7403F059FA0D4A10493846EB
:1006700005F0FEF90F4B104A1A600A221A72BDE803
:10068000F081356093E71860C4E700BF4C43FF1F5B
:10069000043EFF1F286C00001C3EFF1FE43DFF1FAF
:1006A0003033FF1F790400001C6C00009840FF1FCE
:1006B0006D040000D83DFF1F006C0000CC6A0000F4
:1006C0008440FF1F10B4047F4160022CC26003D03D
:1006D0005DF8044B03F070BB83685DF8044B18476A
:1006E000F0B4464B464A986B5C6B017911704549F2
:1006F00022790A701A6B00790870002A46D059686E
:10070000C9688A423ED82168CC8B240402F1FF30AC
:1007100065D4C0F30E00C883C88B80B2C882996BC1
:100720000968C88B000452D4C2F30E00C883C88B7A
:10073000002480B212F1FF32C88218BF01221C636C
:10074000596B2E4809680D6800F12C04A54236D07B
:100750000068C46814F0804F0C680D6815BF2488C9
:1007600024780235013544F000440D604463996BF0
:10077000254B09791970214912B14A6B12791A7007
:10078000F0BC7047521A1A630122D9E7D86B196876
:1007900005681E4C0A63CC62CC682D681C4E24F0A0
:1007A00080440327B542CC6083F82D701FD1037FAE
:1007B0004260022BC2601ED0F0BC03F0FDBA01689B
:1007C00090F82C00CC6840F000404863CFE7CC8B19
:1007D000C2F3080004F47E442043C883A7E7CC8B0F
:1007E000C0F3080004F47E442043C88394E72B46FA
:1007F0001146F0BC18478368F0BC18473433FF1F1C
:100800001F8000401C8000401B80004000000FFF44
:10081000C506000090E80C00F0B41C685968256813
:10082000164F174E29432160164D17491760D660A1
:1008300015611160417A154A5C180C3194F82C400E
:1008400053F8215002EBC40149680D60017A5C182D
:1008500003EB8101247ECD6902EBC40149680D6080
:10086000817A581803EB810390F84000596C02EB31
:10087000C002F0BC53681960704700BF01401F0000
:10088000011000380110007800001F80786C000013
:10089000632911D830B44A09C57A012303FA02F456
:1008A0002C4300EB8202C472D06801F01F0103FAEE
:1008B00001F10143D16030BC704700BF632913D8F8
:1008C00030B44D0900EB850401F01F01E3680122FB
:1008D00002FA01F123EA0101E16021B9C37AAA40D9
:1008E00023EA0202C27230BC704700BFF0B4254B4D
:1008F0004568AB4211D0437A2B4493F82C60B14247
:1009000009D005F12B02002312F8014F8C421AD0B6
:100910000133042BF8D1F0BC70470B292CD00729E8
:1009200009D01C29E7D1184A137823F0030343F0B8
:1009300002031370DFE7144A137823F0030343F034
:1009400001031370D7E795E806000968114210D03B
:100950000E4A02EBC60600277468E918276091F872
:100960002C1002EBC10203F10C01546855F8212050
:1009700022604372F0BC7047034A137823F00303EC
:100980001370B8E7146B0000EE43FF1F786C000093
:10099000284A43689A4270B415D0827A1A4492F871
:1009A000402091420DD093F840408C423FD093F8C4
:1009B00041408C421DD093F842408C4208BF022136
:1009C00018D070BC70470D292BD00E2909D01B29D7
:1009D000E3D1194C227822F0300242F0200222703A
:1009E000DBE7154C227822F0300242F01002227030
:1009F000D3E701211D685C682D6825420FD00F4C9C
:100A000004EBC202002655685A182E6092F8402066
:100A100004EBC20403EB810362685B6C13608172B8
:100A2000CFE7054C227822F030022270B5E7002192
:100A3000E0E700BF146B0000EE43FF1F786C00007E
:100A400000207047704700BF10B582B002AB02684B
:100A500003F8011D546819460122A04702B010BDD9
:100A6000C06938B18369C06847F6FF72181A9042AE
:100A700028BF1046704700BFC36910B504463BB19C
:100A800000201871E06901F00DFDE3691B791BB1CD
:100A900001232371002010BD10BD00BFC06978B1D3
:100AA00000B583B001220DF1070101F0CDFA012854
:100AB0000CBF9DF807004FF0FF3003B05DF804FB5A
:100AC0004FF0FF30704700BFC369C3B110B582B0AB
:100AD0000446012218460DF1070101F0B5FA01287C
:100AE00003D04FF0FF3002B010BDE0699DF8074021
:100AF000C168013901F064FB204602B010BD184600
:100B0000704700BFC06908B101F08CBB704700BFDF
:100B10002DE9F04105464FF47A731348AB6000238A
:100B200028602B712B7324200C46904605F024FA84
:100B3000E861B0B1064604F1200E20686168A26841
:100B4000E36837460FC7103474453E46F5D1206838
:100B5000386041460C2205F10D0005F0D3FD00235D
:100B60006B762846BDE8F081B06B00004FF47A72D6
:100B7000044982600022016002710273C261427303
:100B8000704700BFB06B0000704700BFC06908B17C
:100B900001F05ABA704700BFC36953B110B504469B
:100BA000184601F0D9F9E06905F0EEF90023E36198
:100BB00010BD7047C06918B18079003018BF01209E
:100BC000704700BF30B58BB000240A460A4D8DF83F
:100BD00008400146012301A88DF80A40019501F063
:100BE00055FCA04218BF012402D001A801F0B4F9BD
:100BF00020460BB030BD00BFD86B0000F0B50E68CA
:100C0000835D2F2B08BF0136841902F1FF3E0025BA
:100C100023782F2B274604F1010408D03BB101357E
:100C20000C2D06F101060EF8013FF1D187190023C2
:100C300053553B782F2B04BF013687190E60387847
:100C4000003018BF0120F0BD2DE9F04F99B0884663
:100C5000264D069500218DF81C1083469246994634
:100C600044468DF81E108DF840108DF84210019109
:100C70000F9506AE05E001F06FF9FDB1234634464D
:100C80001E4602AA01A95846FFF7B8FF80F00102EC
:100C9000D2B24B4602A905462046D0472146074618
:100CA000012302AA70B13046ADB101F0EFFB44451B
:100CB00005462046DFD10DB10FACDFE7002019B0AB
:100CC000BDE8F08F4445F9D0204601F045F938469B
:100CD00019B0BDE8F08F444506D0204601F03CF93C
:100CE000012019B0BDE8F08F0120E8E7D86B0000C3
:100CF00038B590F8323004460D46D3B9FE2D1DD0DC
:100D00002A460121204600F015FE03460BB90020BB
:100D100038BD251D28460122214601F0B3FEC0B191
:100D2000294604F12C0001F067F9003018BF0120BA
:100D300038BD2C3001F010F9FE2DE1D1257000F006
:100D400013FA054600F0FEF9B5FA85F35B09A070C9
:100D5000DCE702462146284601F094FE0028DFD158
:100D6000002038BD2DE9F04F99B04FF00008DFF8B2
:100D7000E8A08DF81C808146043106A893460193B3
:100D80008DF81E808DF840808DF84280CDF818A037
:100D9000CDF83CA001F030F906AE5D460FAF2F2133
:100DA000284605F047FC441BE4B2294608B32B78DB
:100DB0002F2B02A81BD00C2C28BF0C24224605F098
:100DC000A1FC18AB2344384603F8588C01F0C4F852
:100DD000012302AA3146384601F058FB88B3304659
:100DE00001F0BAF8334625443E461F46D7E70135A1
:100DF000D5E7019831797279B379B468377DCBEB57
:100E000005050560F068356989F8041089F8052042
:100E1000B16989F80630F269336AC9F80C004846AE
:100E2000C9F800A0C9F80840C9F8105089F8147032
:100E3000C9F81810C9F81C20C9F8203019B0BDE84D
:100E4000F08F89F8040089F806004846C9F800A028
:100E500019B0BDE8F08F00BFD86B0000F0B59DB0B1
:100E600005461F4601A86B461446FFF77BFF009A14
:100E7000A35C1444002B42D09DF80A202F4E0A9602
:100E800000238DF82C308DF82E30002A31D00AA89E
:100E90003B46224601A901F0F9FA50B301A801F03E
:100EA0005BF817F0060F43D19DF82C700C9B9DF852
:100EB0002DE0139622469DF82E408DF850708DF847
:100EC000524015930D990E989DF83C70109E119C00
:100ED000129B8DF851E01691179013A928468DF8B2
:100EE000607019961A941B93FFF712FE28461DB0E6
:100EF000F0BD2846FFF73AFE28461DB0F0BD9DF82C
:100F000008700E4E9DF809409DF80A30039A8DF83E
:100F1000507013968DF851408DF852301592049907
:100F200005989DF81870079E089C099B044AD2E713
:100F30000AA8109901F044F9B6E700BFD86B000089
:100F4000CC6B000010B40C46002300F12C01034AC6
:100F500020465DF8044BFFF777BE00BFC50B0000CD
:100F6000064B074ADA620221002259609A7083F820
:100F7000242083F8302083F832207047AC40FF1FD4
:100F8000D86B00004FF47A72264B02FB00F09842B7
:100F9000F0B440D8244D0821012252001301B5FBC2
:100FA000F3F39842204C32D20139F6D1B4FBF2F47B
:100FB00053081F02A04232D21B4E51000123B6FB40
:100FC000F1F4A04203F1010511441ED2102D2B466D
:100FD000F5D1F022154C1649236823F0080323604D
:100FE000206820F47F2020F47F6040F4602040EAF5
:100FF0000703134323600B681B07FCD50B4A1368D8
:1010000043F008031360F0BC70471A01E2E7B4FB39
:10101000F2F4D701CEE7044C00270122CAE70022F0
:10102000D8E700BF4FA9AB000095BA0A2C100B40BF
:1010300024100B402049214A0B6843F080030B60C9
:1010400011461368DB07FCD40B689B07F9D41C4BD3
:1010500030B44FF08072184D186000E0A2B12968DA
:10106000184B154C0B40013A002BF7D062B1012B05
:101070000AD1236813F0800F23680FD043F00113C7
:101080002360032030BC70470B4A136843F470237D
:1010900043F001031360012030BC704713F480302B
:1010A000236804D043F0011323600520F4E743F0E4
:1010B00001032360F0E700BF30100B4024100B4009
:1010C0000C100B4001000E0070B50D4D0D480E4E7A
:1010D00000232B60FFF7AEFF40F2E734034632688F
:1010E000520701D507480BB1184670BD2B60FFF7BA
:1010F000A1FF013C0346F2D1002808BF052070BDC6
:1011000008100B400000DB0C24100B4070B5094C9C
:101110000023054623600848FFF78CFF00B170BD2F
:10112000064E074833682560FFF784FF0028F6D194
:10113000336870BD08100B4000001A3710100B40C8
:1011400000000229074B1A784AB99A782AB15B78CD
:10115000002B0CBF022003207047012070470020A5
:10116000704700BF0041FF1FAA4AAB491368AB4854
:1011700043F040632DE9F04713600B68DFF804E3A8
:10118000A74FA84EA84DA94C02F5232243F40033E3
:101190000B6002F62C0240F203130021CEF800305F
:1011A0003B6031602B6023600360136843F0807301
:1011B00043F4004313601368DD01FCD44FF4C8709E
:1011C000FFF7E0FE9A4A13689C07FCD1944FDFF8C2
:1011D000B4E29449954D914C964A934E964840F20C
:1011E0004343CEF800303B604FF488670F604FF404
:1011F000813133602B602360116003688F49904D0B
:1012000023F0380304F5C82443F028030360203496
:101210000B680B60283240F2DC512560136843F004
:101220000063136013681801FCD40139F6D1834AB6
:101230007F48136843F0800313600368DA0308D41F
:10124000804B022059709970187059609960BDE800
:10125000F0877C4C7C4B7D4E21706170A1700846FC
:10126000196031606160A160FFF7E4FE70B9784DEC
:1012700078482B684FF4D5733360FFF7DBFE48B92D
:101280002B682B68B3F5D57F00F0C180012020705A
:10129000BDE8F0870528F9D10020FFF737FF0028C7
:1012A000F4D16B4B1A6812F4401F19D06278DFF842
:1012B000D881694F002A05461E4608BF4FF44017E3
:1012C0003846FFF723FF0135614B002840F0F180DD
:1012D0003268002AC0F2E4804545F1D100236370F2
:1012E0005A4E5E4800233360FFF7A4FE03460028F1
:1012F000CCD1574D5A482A683360FFF79BFE00282F
:10130000C4D12B682B6857484E4D1B0C1B0433600F
:101310006360FFF78FFE0028B8D1534B53491A681A
:10132000120EEA700A6812F4400F40F0AF8019689C
:101330004F481B68026800689B0203F4406343EA5D
:101340009253C0F3C2105A1CC1F30321831C093904
:1013500002FA03F38B40AB603C4E63683360454850
:10136000384FFFF767FE002890D1394D42482B686F
:101370004FF400733360FFF75DFE002886D17B6871
:101380002A683E483360FFF755FE00287FF47EAFA1
:1013900002232A683A483360FFF74CFE00287FF4A6
:1013A00075AF254B2A681A68DFF8D8A0DFF870906F
:1013B000DFF87080194C22F006021A601A68A6F550
:1013C000C726A6F2FC76A5F5C82542F002021A60EF
:1013D00040F20313CAF80030C9F80030C8F8000022
:1013E000336046F2A8102B602360FFF7CBFD40F27C
:1013F00043434FF48862CAF80030C9F80030C8F897
:10140000002033602B6023603878BDE8F08701232B
:10141000637041E700D800403080044014D004409D
:1014200004D0044008D004400CD0044010D0044044
:1014300024100B4004100B4028100B4030100B40C0
:10144000BB007F110041FF1F38100B4008100B40FC
:1014500010100B4000001A08000030400000090284
:1014600000001A030000090918100B401C100B4063
:1014700014100B4000001B0700001A1000001A3760
:1014800000001A0600D00440A086010001220A4B89
:10149000AA701B68C3F3152313449B02AB605BE780
:1014A000064A95423FF41AAF1B685B007FF516AF02
:1014B00016E70120BDE8F08714100B40A08601005C
:1014C000F8B5384B1A780AB10320F8BD5B780646A8
:1014D00003B94902344D354C354B36484FF6FF774A
:1014E0004FF481322F6021601A60FFF7A3FD0028BE
:1014F000EBD1314B31491B681C3406F1400206F533
:1015000010702B68284F43F0200613F4E00F2E6074
:101510003ED123681E05FCD50B6842F8403C0B68A1
:1015200042F83C3C0B6842F8383C0B6842F8343CCB
:101530000B6842F8303C0B6842F82C3C0B6842F8D0
:10154000283C0B6842F8243C0B6842F8203C0B68AE
:1015500042F81C3C0B6842F8183C0B6842F8143CFB
:101560000B6842F8103C0B6842F80C3C0B6842F8E0
:10157000083C0B6842F8043C40328242C1D1002052
:1015800009490B68084A9B07FBD50D4B1360F8BD52
:1015900043F4E00343F020033B60FFF795FD012097
:1015A000EEE700BF0041FF1F30100B4008100B405A
:1015B00004100B4010003A1110100B4020100B408B
:1015C00022000001F8B52B4B1A780AB10320F8BDB0
:1015D0005B78044603B94902274D28482A68284BFE
:1015E0002A604FF48132016026481A60FFF722FD1D
:1015F0000028ECD1244B254E1B68294604F50077C2
:101600000B681D4AD806FBD52B6813F4E00F1AD1DE
:1016100004F1400254F8043B3360A242FAD10B6853
:10162000DFF854E043F010030B600B6813F4E000A4
:1016300013D19742E4D110490B680F4A9B07FBD5A1
:10164000134B1360F8BD136843F4E00343F0100339
:101650001360FFF739FD0120EDE7DEF8003043F4B9
:10166000E00343F01003CEF80030FFF72DFD01201A
:10167000E1E700BF0041FF1F30100B4008100B4096
:1016800004100B4000003A1810100B4020100B40C3
:1016900012000001052822D8DFE800F003030F152F
:1016A0001B09124B124A1A601248FFF7B3B80F4BCE
:1016B000114A1A600F48FFF7ADB80C4B0F4A1A6079
:1016C0000C48FFF7A7B8094B0D4A1A600948FFF705
:1016D000A1B8064B0B4A1A600648FFF79BB8034BAC
:1016E000094A1A600348FFF795B800BF1041FF1F71
:1016F000000001B83433FF1F0430003801100038F7
:1017000003200038010002380650013810B50121CD
:10171000007802F073FF114A1378C3B11049CB7AF5
:1017200000241846147093B1DA0703D50D4AC8692E
:10173000106018469C0703D50B4B0A6AC87A1A60DA
:10174000420705D4030702D5084B8A6A1A6010BD08
:10175000074B4A6AC87A1A60F4E700BF1441FF1FBA
:101760003433FF1F00E100E004E100E00CE100E0A1
:1017700008E100E0234B1A781AB10078002102F04A
:101780003DBF70B4204A2149D47A096801251D70F3
:10179000002C26D072B6D47AE607234606D51C4D17
:1017A000D3682E683340D3612B602346A50706D546
:1017B000184D14692E68D37A344014622C605C078B
:1017C00006D5154D54692E68D37A344054622C6086
:1017D0001B0705D5114C936925682B409362236044
:1017E00062B61368DA688A4207D00D4C1C600D4A55
:1017F000D96041F080441C611A600078002170BCFF
:1018000002F0FCBE1441FF1F3433FF1F1041FF1FC5
:1018100080E100E084E100E088E100E08CE100E0AC
:1018200001403F0000003F80F0B41248124A0368B4
:1018300082B016460093009F4FF00045FF241368C6
:1018400043F480631360D5625463D36A002BFCDADF
:10185000B36BDBB2FF2B09D003680193019BDB1B49
:101860008B42ECD3002002B0F0BC7047012002B0E4
:10187000F0BC7047F043FF1F00C00240F8B50D46B2
:101880004FF4967116460446FFF7CEFF284B1A68B0
:101890004FF0004042F4806245F040011A60D86287
:1018A0001A465963D36A002BFCDA214918204FF0FD
:1018B00000470A6826FA00F342F48062DBB20A604D
:1018C000CF624B63CB6A002BFCDA083810F1080FAB
:1018D000EFD155B3082D0CBF8721FF21144B1A6897
:1018E0004FF0004042F480621A60D8621A46596391
:1018F000D36A002BFCDA0E4A002716464FF000454B
:10190000FF21136843F480631360D5625163D36A87
:10191000002BFCDAB36BD8B21B06607000D4F8BDA4
:101920000137B7F5807FECD1F8BD9521D6E700BF30
:1019300000C002402DE9F04300239D4E027085B0A7
:101940008370336801930546884610460121019F44
:1019500002F054FE2878012102F056FE2878012179
:1019600002F04CFE934A136843F480531360062040
:10197000FFF790FEDFF870E28F4B9EF80BC01A68FD
:10198000BCF1000F2CD072B69EF80B10C8070B46A6
:1019900008D58A48DEF80C3004682340CEF81C30A5
:1019A00003600B468C0709D58548DEF810100468E3
:1019B0009EF80B302140CEF820100160580709D561
:1019C0008048DEF8141004689EF80B302140CEF8F1
:1019D00024100160190700F1AB8062B69EF80BC0BD
:1019E000DEF80030D968914207D07748186077490F
:1019F000DA6042F0804018611960754A0A244FF09D
:101A00000040FF21136843F480631360D062516388
:101A1000D36A002BFCDA013C14F0FF04F2D1BCF1D4
:101A2000000F21D01CF0010F05D06A4BDEF81C20FE
:101A30009EF80BC01A601CF0020F05D0664BDEF852
:101A400020209EF80BC01A601CF0040F05D0634BD9
:101A5000DEF824209EF80BC01A601CF0080F03D09B
:101A60005F4BDEF828201A602846FFF783FE06E069
:101A700033680293029BDB1BB3F5FA6F51D8002247
:101A800011462846FFF7FAFE012881466870EFD11B
:101A90004FF4D57208212846FFF7F0FE430726D5FC
:101AA00085F802904FF0000906E033680393039B2A
:101AB000DB1BB3F5FA6F34D8002237212846FFF735
:101AC000DDFE4A4629212846FFF7D8FE6870002827
:101AD000EBD1AB78022B39D02846FFF717FE4046F2
:101AE000FFF7D8FD0124204605B0BDE8F083384A51
:101AF000042194464FF0004EFF20136843F48063A6
:101B00001360C2F82CE05063D36A002BFCDADCF8D7
:101B100038300139DBB211F0FF016B70EDD1AA2B27
:101B20000FD02846FFF7F2FD204605B0BDE8F08350
:101B30002C49DEF8183008680340CEF828300B60D6
:101B40004BE70223AB704FF08049B5E702463A21DC
:101B50002846FFF793FE0028E3D11D4B1A684FF08B
:101B6000004442F48062FF201A601946DC62586328
:101B7000CB6A174A002BFBDA936B154A03F0C003BC
:101B8000C02B04BF0323AB70032116464FF0004463
:101B9000FF20136843F480631360D4625063D36AF8
:101BA000002BFCDA013911F0FF01B36BF1D193E79F
:101BB000F043FF1F3C8004401041FF1F80E100E024
:101BC00084E100E088E100E001403F0000003F8048
:101BD00000C0024000E100E004E100E008E100E0B4
:101BE0000CE100E08CE100E03433FF1FF0B4154954
:101BF000154A0B6882B016460093009F4FF00045CF
:101C0000FF24136843F480631360D5625463D36A7E
:101C1000002BFCDAB36BDBB2FF2B43700AD10B68ED
:101C20000193019BDB1BB3F5967FEAD9002002B03C
:101C3000F0BC7047A3F1FE00B0FA80F0400902B09A
:101C4000F0BC7047F043FF1F00C00240F8B5837836
:101C5000032B0E46044618BF4E021546FFF78AFDB9
:101C6000324611212046FFF709FE18B92046FFF73A
:101C7000BDFF20B92046FFF749FD0020F8BD204BED
:101C80002049214A1A608E4659631A4659631E46F6
:101C9000596305F5FD70A91C05F5FE77D36A13F0AD
:101CA000F00FFBD0C6F834E0B36B01F8013C1B1217
:101CB00001F8023C02318F42F0D105F50075A842CF
:101CC0000DD20F4A1646D36A13F0F00FFBD0B36B58
:101CD000191200F8021BA84200F8013CF3D3084B8C
:101CE0000949084A196019465A63CB6A044A13F035
:101CF000F00FFAD02046936BFFF708FD0120F8BDE6
:101D000000C00240FFFF009000041F80F0B4314E7D
:101D100033684FF0004743F4806333603D46F76219
:101D2000344671633346511C02F20127E26A002AED
:101D3000FCDA1A6811F8016C42F480621A60DD6204
:101D40005E63E26A002AFCDA1A6811F8026B42F458
:101D500080628F421A60DD625E63E7D11D49CA6A04
:101D60001C4B002AFBDA1A684FF0004542F48062EF
:101D7000FF241A601946DD625C63CB6A154A002BAA
:101D8000FBDA13684FF0004543F48063FF241360CF
:101D90001146D5625463CB6A0E4A002BFBDA1368F6
:101DA0004FF0004543F48063FF2413601146D56271
:101DB0005463CB6A074A002BFBDA936BDBB203F068
:101DC0001F024370A2F10500B0FA80F04009F0BC98
:101DD000704700BF00C0024070B5044671B18378FF
:101DE000032B0D4618BF4D021646FFF7C3FC2A46CB
:101DF00018212046FFF742FD054620B12046FFF797
:101E000085FC002070BD3246FE212046FFF77EFF94
:101E10000028F3D04FF416712046FFF705FD002887
:101E2000ECD02A460D212046FFF728FD0028E5D1F9
:101E30000B4B1A684FF0004542F48062FF201A6095
:101E40001946DD625863CB6A054A002BFBDA936BB7
:101E500013F0FF0FD2D12046FFF758FC012070BDD0
:101E600000C00240014B024A1A6070471041FF1F38
:101E70000320003838B590F90530002B03DBBDE8AE
:101E8000384000F013BC04460121006900F04EFC0C
:101E9000F8B1257D104B13EB45151AD0A3790F4AE5
:101EA000012B9CBFA369EB61E36912686B831B0C78
:101EB000AB8232B105F1160105F1180090472B8B6A
:101EC0006B82637903F07F036371BDE8384000F0F3
:101ED000EDBB002038BD00BF2441FF1F1841FF1F8C
:101EE00010B500F1080204460121006A00F012FD5D
:101EF00050B1E3693BB96379A268E26163F07F03A3
:101F00006371012010BD012010BD00BF70B50646F1
:101F1000FFF7E6FF98B1326AB568117C536914790E
:101F2000023D8D40013B74B11D4402E014F0FF04FA
:101F300007D0601900F06AFC013C0028F6D10020AF
:101F400070BD336A197CB0694FF4007202FA01F374
:101F50000344B361012070BD82790AB90020704743
:101F600010B50446FFF786FF18B10023A3710120C6
:101F700010BD002010BD00BF70B44B1E01F10A045B
:101F8000202203F8012FA342FBD1013800250726A8
:101F900010F8014F2CB32E2C1ED0164A01E09C42A3
:101FA00017D012F8013B002BF9D1AE421FD3A4F198
:101FB00021025D2A1BD8A4F16102192A05F101034F
:101FC00098BF203C0D44DBB298BFE4B22C701D4694
:101FD000DEE7002070BC70470A2EFAD008250A26DA
:101FE000D6E70B78B3F1200018BF0120F2E71846BE
:101FF000F0E700BFE86B000038B583793BB991F892
:102000002020102A0D46044603D0202A10D000209C
:1020100038BD022282714A8CC3615301836100235F
:102020000120607123752562A360E360236138BDE0
:1020300003238371496AC16100F11802284600F048
:1020400039FC0028EBD1E2E7837913B94FF0FF3078
:1020500070472DE9F04F8B464179C90783B005469B
:102060005BD5C1688469641A944228BF1446264629
:102070000194002C69D01A46022ADFF8FC903D4FEB
:10208000DFF8F880C1F3080A42D0286A0479013CDD
:1020900004EA5124E4B2BAF1000F62D1002C60D1FD
:1020A000002956D1EA69AA6090F810E04169023A25
:1020B00002FA0EF221441144CAF500746A79B4425E
:1020C000A8BF344653062DD4B4F5007F2AD0084665
:1020D000002100F02BFB00B30AEB090E0EEB04000D
:1020E00086450BD00BF1FF32734613F8011B02F843
:1020F000011F9842F9D1CEEB00008344E968361BFA
:102100002144E96021D0AA79022AC1F3080ABCD18E
:102110002A6A506A00EB5121CEE74FF0FF3003B03E
:10212000BDE8F08F3A689142D1D0D8F8000003782A
:10213000FE2B18D05A46FFF789FD0028EDD0E9683C
:10214000361B2144A344E960DDD1019803B0BDE80A
:10215000F08F05F10802A96800F074FB0028DCD0BC
:10216000286AAA68A0E75846FFF7AAF9B0FA80F0F3
:102170004009E2E77433FF1F2441FF1F2041FF1F86
:102180008379012B17D930B5C36883B001220DF1D3
:1021900007010446C3F34315FFF756FF012802D099
:1021A000002003B030BDE36804481F3300EB451046
:1021B000E36003B030BD0020704700BF2441FF1F23
:1021C000F8B5837913B182698A4201D20020F8BD43
:1021D000022B0F4605461AD007B32B6AE9681C7C10
:1021E0004A1E04F109037C1EDA40DC40A24211D9E8
:1021F000EB69AB6005F1080606E0A968286A00F003
:1022000021FB013C0028E1D03246002CF5D1EF60E3
:102210000120F8BD0029EBD0A41AEBE7AF60EF6016
:102220000120F8BD83790BB1FFF724BE1846704733
:102230008379012B01D000207047F0B54579AC07B8
:1022400083B002461CD585698D420C4618D3D5B1A2
:102250002546D6681446FFF7B3FF88B1B5B9E169E2
:10226000206A00F0E1FB58B1E56122E000F0DCFB00
:1022700030B16FF07042A168206A00F0C3FBC0B9B2
:10228000002003B0F0BD184603B0F0BD01AAA1685C
:10229000206A00F0D7FA0028F2D0206A0F4B90F89D
:1022A000207001994FF6F872102F08BF134699421B
:1022B000DCD36379A279A56163F07F036371002A9F
:1022C000DED02046FFF7D6FD0028D9D0B5422946FA
:1022D000204628BF3146FFF773FFD2E7F8FFFF0F14
:1022E00070B51D4B03EB4116F37A13F0110F02D0BA
:1022F00012F0420F1ED1194B01751B680361738BDD
:10230000B18A43EA0141C161F37A13F0180315461B
:1023100004460DD1F36983610123837105F00F0336
:10232000002163716B06A160E1600FD4012070BDD4
:10233000102B01D0002070BD00F11802006A00F0DF
:10234000B9FA0028F6D00423A371E7E72046BDE8D8
:102350007040FFF76DBF00BF2441FF1F7433FF1FA4
:102360002DE9F04784B001AF06460C4610463946C9
:102370009946FFF701FE78B30022216A31621346C5
:102380001546A260E260DFF8008108E0E52B1CD072
:1023900001460B22384604F0B7F888B3E368A26917
:1023A0009A421DD92046C3F3431AFFF7E9FE98B1BC
:1023B0000378002BEAD15DB9D8F8003086F814A074
:1023C0003361037823B10125E8E7002DFBD1F3E762
:1023D00009F01203122B1DD0002004B0BDE8F087D5
:1023E00009F01203122BF7D1A5B9A379022BF3D070
:1023F0002046FFF78BFD0028EED0214C357514E008
:1024000009F03003302BE7D04A4651463046FFF7FB
:1024100067FFE2E70121306900F088F90028DBD08E
:10242000347D174B13EB4414D6D0202200212046D4
:1024300004F09CF897E80700234603C3114923F8EA
:10244000022B0D68120C1A709DB104F10E0104F1FB
:102450001000A847238AE28963822383E28200F086
:1024600025F90028B8D04A46317D3046FFF738FFBD
:10247000B3E742F621034FF400622382E281EBE7E7
:102480002441FF1F1841FF1F7433FF1F10B48479CC
:102490001CB100205DF8044B70475DF8044BFFF75A
:1024A0005FBF00BF2DE9F04F8B46817985B00129D0
:1024B0000746019205D001233B71002005B0BDE81D
:1024C000F08F42799107F6D5530708D5FC68B969B2
:1024D0008C4200F0B480FFF773FE0028EBD0019B24
:1024E000FC68002B4AD0DFF8A491DFF8A4A1DDF846
:1024F0000480386A0679013E06EA542616F0FF0683
:10250000C4F3080443D1002C41D1B968002973D128
:10251000FA69002A00F08380BA60C4F50075ADB294
:1025200045453AD9057C4169023AAA400E44164411
:102530001FFA88F51CB9F868BA6990424FD2304644
:10254000012100F0F3F80028B5D04C4404EB050E4F
:1025500074450DD00BF1FF31621E0EF1FF3611F8FC
:10256000010F02F8010F9642F9D1C4EB0E04A34407
:10257000FC68B8EB05082C44FC60BAD1BB69A342E7
:1025800062D27A79BC6142F080027A7165E0C4F56A
:102590000075ADB24545BA68C4D8017C4069023ABD
:1025A0008A400644B5F5007F1644C3D1DAF800200E
:1025B000964204BF4FF0FF32CAF800202F4A10683D
:1025C0000278FE2A314633D05A46FFF705FC002830
:1025D0003FF471AF0BF5007B4FF40075C8E700F0D6
:1025E00065F800283FF467AF2549CAF800600A780B
:1025F00042F001020A70A8E703AA00F023F90028BC
:102600003FF45CAF386A1F4B90F82050039A4FF6A6
:10261000F871102D18BF19468A42FFF47DAF384675
:10262000FFF75EFC00283FF446AF386ABA6874E7EB
:102630005846FEF7C7FFB0FA80F04009C7E7019B94
:10264000002B7FF450AF08E00F4B7A791B6823B161
:10265000019B13B142F080027A71120709D5BB7950
:10266000002B3FF428AF3846FFF704FC00283FF466
:1026700022AF019805B0BDE8F08F00BF2041FF1FD9
:102680002443FF1FF8FFFF0F1841FF1F2441FF1FC6
:102690007433FF1F00B583B002AB012203F8011DA4
:1026A0001946FFF7FFFE03B05DF804FB70B51A4C46
:1026B00023780BB9012070BD184D194B2868196893
:1026C0000378FE2B17D0174AFFF786FB88B1164E0A
:1026D000316819B900232370012070BD2868037880
:1026E000FE2B0FD00F4AFFF777FB10B100233360AA
:1026F000F0E7002070BD0B48FEF764FFB0FA80F0F1
:102700004009E3E70748FEF75DFFB0FA80F04009B3
:102710000028EBD1EDE700BF2443FF1F2041FF1F3E
:102720007433FF1F2441FF1F1C41FF1F70B5124D62
:102730002B6883420E4611D00446FFF7B7FF08B955
:10274000002070BD0D4B18680378FE2B0CD00C4A8E
:102750002146FFF77BFA0028F2D02C60094B19784C
:1027600031431970012070BD21460548FEF7A8FECF
:10277000B0FA80F04009EEE77433FF1F2041FF1FDD
:102780002441FF1F2443FF1FF8B590F82030C4698F
:10279000102B1A4B05460E4617461B6816D004EB45
:1027A000D1149C4216D106F07F06154A42F82670D5
:1027B0001449287E0A78012842F001020A7018D9CB
:1027C000A968114A0B4413600120F8BD04EB1124E1
:1027D0009C4208D000212046FFF7A8FF50B195F891
:1027E0002030102B07D1F6B2054A234622F8167086
:1027F000DEE70120F8BD2346D5E700BF7433FF1F95
:102800002441FF1F2443FF1F1C41FF1F10B5044636
:10281000FFF74CFF78B1084B002103F5007203F875
:10282000011F9342FBD1054A054913780C6043F020
:1028300001031370012010BD2341FF1F2443FF1F1C
:102840007433FF1FC36801338B4218D370B590F8FF
:102850002030102B154B044616460D46C0691B68E8
:102860000FD000EBD11098420FD105F07F01104B33
:1028700053F8213023F070433360012070BD0020F5
:10288000704700EB1120984207D00021FFF74EFF60
:1028900050B194F82030102BE7D1E9B2044B33F853
:1028A00011303360012070BD002070BD7433FF1FF4
:1028B0002441FF1F2DE9F04782B002ADDFF85080C0
:1028C00045F8041D044691464FF0000A4FF4007786
:1028D0004FF6F8760CE094F82030227C0199102B0A
:1028E00014BF4346334607FA02F29942924408D293
:1028F0002A462046FFF7A6FF0028ECD102B0BDE82B
:10290000F0870120C9F800A002B0BDE8F08700BF41
:10291000F8FFFF0F2DE9F04F176883B06FB3013751
:102920004FF0000AC36803F1010813B38B46064653
:1029300091463C46002505E01C461F46F3680135DC
:10294000AB4216D9A04538BF0224214601AA304621
:1029500038BF2746FFF776FF631CD91B48B1019AA1
:10296000002AE9D18B4510D01C46F3680135AB42F3
:10297000E8D8002003B0BDE8F08FA1F1010ABAFA4F
:102980008AFA07684FEA5A1ACCE7012CF1D9F368A2
:1029900001339C42EDD86FF0704221463046FFF77C
:1029A000F3FE0028E5D0A74214D2013C012CE0D967
:1029B000F36801339C42DCD8621C21463046FFF7A5
:1029C000E3FE0028D5D0A74204F1FF3402D0012C49
:1029D000EED1CEE7D9F8001059B10129C9D9F36871
:1029E00001339942C5D83A463046FFF7CDFE00285C
:1029F000BFD0C9F80070BAF1000F01D001373760BD
:102A00000120B7E701290CD9C3680133994210B4FA
:102A100003D85DF8044BFFF7B7BE00205DF8044B08
:102A200070470020704700BFF0B5022383B0054611
:102A3000134F03600C464FF6F8760FE0EB68013356
:102A40009C4216D8FFF7A0FE98B195F82030019C63
:102A5000102B0CBF33463B469C420DD201AA2146A7
:102A60002846FFF7EFFE2146002210B1012C284630
:102A7000E4D8002003B0F0BD012003B0F0BD00BFDA
:102A8000F8FFFF0FF8B53E4B054619601446DAB162
:102A9000042A01D90020F8BD00210846FFF746FEB0
:102AA0000028F7D0374B03EB041292F8AE21520600
:102AB000F0D11B3403EB0414D4F80A30632BE9D9AA
:102AC000D4F80640002CE5D000212046FFF72EFE6A
:102AD0000028DFD02B4AB2F80B30B3F5007FD9D1F4
:102AE000117C0029D6D0D389002BD3D0567B002E61
:102AF000D0D0002329762E712B74012703E00929F9
:102B00000B462974C6D007FA03F0B04203F1010165
:102B1000F5D1D68A1B4906B94E6AB2F80EE0AE600E
:102B2000A644C5F81CE0B2F81110177C698448016E
:102B300006FB07E600F2FF1006EB60206E6268619C
:102B4000B2F813100F4E01B9316A241A0C4424FA5A
:102B500003F340F6F4718B42EB600BD94FF6F4713E
:102B60008B4285BFD36A6B621023202385F8203007
:102B70000120F8BD0C2385F820300120F8BD00BFEE
:102B80002041FF1F2441FF1F002070470020704795
:102B9000F8B5144C037A242908BFC2805B000125D4
:102BA0000E462046C1F30721174684F83B3084F8CF
:102BB0005E5084F85D5002F0A3FFF1B2204602F0AF
:102BC0009FFFC7F30721204602F09AFFF9B2204683
:102BD00002F096FF2946204603F0FEF8B0FA80F096
:102BE0004009F8BDA834FF1F70B5012604460671E0
:102BF000344802F099FF052001F00CFD204644F214
:102C000060023021FFF7C4FF0546002857D06C2230
:102C100026212046FFF7BCFF4FF4F97228212046F9
:102C2000FFF7B6FF40F622722C212046FFF7B0FFD7
:102C300044F246423C212046FFF7AAFF40F23712F9
:102C400024212046FFF7A4FF44F2FF023021204652
:102C5000FFF79EFF732202212046FFF799FF4FF4F2
:102C6000C87001F0D7FC41F61D522E212046FFF717
:102C70008FFF042211462046FFF78AFF30220621EB
:102C80002046FFF785FF10220A212046FFF780FF2C
:102C900000220E212046FFF77BFF43F63C42102125
:102CA0002046FFF775FF47F67F7222212046FFF787
:102CB0006FFF362224212046FFF76AFF66722846FE
:102CC00070BD00BFA834FF1F10B5044619B101291B
:102CD00011D0002010BD55222021FFF759FF0028F8
:102CE000F7D0E28842F00402204692B22421BDE8E7
:102CF0001040FFF74DBF40F273122A21FFF748FF43
:102D00000028E6D0882220212046FFF741FF002836
:102D1000DFD0E288204622F004022421BDE81040E2
:102D2000FFF736BF38B50546F1B1802903799ABF60
:102D3000C1F1800444EA0424002433B92246284621
:102D40002221BDE83840FFF723BFC288002322F0CC
:102D5000100203712421FFF71BFF2246284622217F
:102D6000BDE83840FFF714BF0123037147F67F72B7
:102D70002221FFF70DFFEA8842F01002284692B2A6
:102D80002421BDE83840FFF703BF00BF9FED057A5F
:102D9000DFED057AE0EE077AFCEEE77A17EE901A9F
:102DA000FFF7C0BF00000143EE7CFF3E2DE9F84F66
:102DB000334B34481A68344912681B790B708242CD
:102DC00029D2324B1B784BBBDFF8D0A0DFF8D09074
:102DD000DFF8D080DFF8D0B0DAF80060D9F8007002
:102DE000B8F80040BBF80050002E3BD09FB33A1D0E
:102DF000311D02EB450201EB440100F039FD403585
:102E000040347F2C1BD8A8F800407F2D0AD8ABF89F
:102E10000050BDE8F88FA0F58070D5E71C4B01226B
:102E20001A60D1E700243846ABF8004000F026FED7
:102E3000184B1A68C9F800201C60BDE8F88F002400
:102E40003046A8F8004000F019FE134B1A68CAF883
:102E500000201C60D9E7311D01EB440100F027FD83
:102E60004034CEE737B1391D01EB450100F03FFD9D
:102E70004035C6E74FF48072394603F077FBC0E770
:102E80002843FF1FA02BFF1F1F8000404043FF1F50
:102E900008E200E03C43FF1F4443FF1F3843FF1F8D
:102EA0003043FF1F2643FF1F3443FF1F70B500212F
:102EB000044600F027FE80B172B61C4A1368002B4E
:102EC00029D01B490D6805B31A4E15600022086011
:102ED000328062B6184600F0D1FD2046012100F094
:102EE00011FE88B172B6144A1368CBB113490C684D
:102EF00074B1134D1460002208602A8062B618462F
:102F0000BDE8704000F0BABD70BD086062B6E4E78D
:102F1000086062B670BD074910600B8062B6DCE7DE
:102F2000074910600B8062B670BD00BF3843FF1FB9
:102F30004443FF1F2643FF1F3043FF1F3C43FF1F37
:102F40003443FF1F10B5044600F01AFF204610BDA1
:102F5000284B29491A68294842F400421A600A6835
:102F600042F002020A601A6842F002021A60036824
:102F7000002B3EDB224B1B68002B3ADB214A4FF033
:102F8000804313601368002BFCDBF0B51E4C1F4818
:102F9000DFF8A8E01E491F4B1F4A204F204E214D4D
:102FA0004FF2FE0CC4F800C0002404600120CEF8EB
:102FB0000000DFF88CE0C1F800E04FF480311960C8
:102FC000194B1360DFF87CE0184A3A6034602860DF
:102FD00000F18E40CEF80000154CB967154816492F
:102FE00046F8503C4FF4C0632A61236003600B60D5
:102FF000F0BD70473C8004404080044000F0024037
:1030000080F0024000F1024004F1024060F0024012
:1030100008F002400CF0024010F0024014F00240B0
:10302000E0F0024084F002401B1F0100001F1F1F40
:1030300008B004400CB0044018B0044004F0024052
:103040000100000788F00240F8B5284C284F2046C0
:10305000012100F02FFE274A274B002515601D6037
:10306000FFF776FF254B264A2648DFF8B0E04FF4FD
:10307000C0611960236824491A6002269E80227963
:10308000D86002F1804202F504324FF48070C3F838
:1030900010E09E60D88240F2011ED88306268D2063
:1030A0009D829D61A3F806E09E83157010702279C1
:1030B0003A70164B164D4FF080720A600B6000F0AC
:1030C0009FFD2279134B144C187053119B0003F190
:1030D000604302F1100003F5614302F01F02012179
:1030E00001FA02F244F820501A60F8BD2843FF1F8D
:1030F0001B8000403843FF1F3043FF1F04B00440D3
:10310000A02AFF1F00FEFFFF00F002400100009018
:10311000AD2D00004043FF1F002EFF1F22F0024094
:10312000024A0349034802F0A3BC00BF3033FF1F2B
:10313000452F00002843FF1F38B50446C06E0D23FD
:10314000002584F87B3284F87C32256610B100F0CB
:1031500095FCE566206F18B100F090FC0023236712
:1031600038BD00BF38B572B690F87B320D2B26D033
:10317000044600230D22C06E256FE366236784F8A2
:103180007B2262B608B100F079FC15B1284600F048
:1031900075FC04F11800FDF7FFFC0A4B1B689B034C
:1031A0000CD4094A13881BB1013B9BB2138043B96D
:1031B00040210648BDE83840FDF780BB38BD62B607
:1031C00038BD38BD308004404843FF1F3433FF1FF3
:1031D00030B589B00D460446FFF7C4FF2C4B1B6881
:1031E0009A0346D572B601232A4668462949FDF757
:1031F00035FE08AA9DF8040012F8143D02992077C4
:1032000084F82430216204F1250304F1320012F81D
:10321000011F03F8011B8342F9D1079B63636846D2
:10322000FDF7B2FC62B604F11800FDF7C3FC0546D9
:1032300068B9174B1B689B0306D4174A13880BBB4E
:1032400040211648FDF73AFB284609B030BD0D2055
:1032500000231421082284F87C022846A4F878323E
:10326000A4F8763284F87A32216684F87B2209B099
:1032700030BD40210948FDF70BFB074A1388013395
:103280001380AFE7013B9BB21380002BD8D0DBE764
:1032900030800440AC40FF1F4843FF1F3433FF1F02
:1032A000836B9AB2012A01D000207047C26B4AF6A4
:1032B00044418A4222D045F222618A421BD042F622
:1032C00011318A42F0D10F4904221B0C012B04D08A
:1032D000022BE9D1490842F00102B0F84630082B30
:1032E00004D0102BE0D1490842F00202816680F838
:1032F0007C220120704704490422E6E703490022AA
:10330000E3E700BF34EE35171AF79A0B8D7BCD0536
:103310002DE9F04FB0F8766200F1760783B03E44B5
:10332000E9B1DFF8B4B304460D464FF0080A4FF098
:10333000000994F87B320D2B00F25881DFE813F07E
:103340000F000F00D3009E000F000F000F000F00B2
:10335000160113004500710087000F00226600204F
:1033600003B0BDE8F08F226E94F87A32AA4204F1DD
:10337000380028BF2A4618443146904600F08EFF98
:1033800094F87A12B4F87622236E4144C8EB030312
:10339000424484F87A12A4F8762223660193002B23
:1033A000DDD12046FFF77CFF002800F01F810A22B4
:1033B000019BC4F860A0C8EB0505464484F87A3246
:1033C00084F87B22002DB4D1C9E7226E94F87A32BA
:1033D000AA4204F1380028BF2A46184431469046D4
:1033E00000F05CFF94F87A12B4F87622236E414420
:1033F0004244C8EB030384F87A12A4F876222366C9
:10340000002BACD1A16BE26B226659454644C8EB58
:10341000050500F001810B2384F87B32002D88D153
:103420009DE7226EB4F876329542C0F04B8113448A
:103430000A21AD1AC4F860A0164484F87A92A4F860
:10344000763284F87B12002D7FF473AF87E7226E0B
:10345000B4F8761295422B4628BF13461944D21A67
:10346000A4F876127FF47AAFED1A1E44C4F860A077
:1034700084F87BA2002D7FF45CAF70E7236E94F894
:103480007D129D4228BF1D465A1B2266002900F06E
:10349000B680E16EB4F87430A06B01EB430C4FF0D2
:1034A000000EACF8040084F87DE2206F96F801C0AD
:1034B00016F802EB00EB430001339BB24EEA0C2EF0
:1034C0007F2BA4F87430A5F10205A0F804E000F207
:1034D000DA80002D40F09380002A00F0968084F876
:1034E0007D5228463CE7236EE16E9D4228BF1D4673
:1034F000C5EB030C0236C4F860C003E00236002DB1
:1035000000F0A280B4F8742016F8020C16F801EC52
:10351000531C9BB201EB420240EA0E207F2BA4F821
:103520007430A5F102059080E8D90022204600F011
:10353000CFFA0122E16E204600F0CAFAE06E00F0F8
:103540009DFA236E206F1D44F61B0023A4F87662BB
:103550002566E36610B100F091FA256E15B90D23CA
:1035600084F87B32012003B0BDE8F08F226E94F81E
:103570007A32AA4204F1380028BF2A46184431465C
:10358000904600F08BFE94F87A12B4F87622236EFF
:1035900041444244C8EB030384F87A12A4F876222B
:1035A0002366002B7FF4DBAEA26B4A498A421DD111
:1035B000226CA1F57001A1F2FB718A4216D101F1D2
:1035C0005B41626C01F5F11101F60F418A4230D086
:1035D0000C23A26C84F87A3284F87B32C8EB0505A0
:1035E00046442266002D7FF4A4AEB8E60D230020E9
:1035F00084F87C3284F87B3203B0BDE8F08F023D62
:10360000307896F801E024D172BB0D23002084F8B5
:103610007B3203B0BDE8F08F94F87C1284F87D32E1
:10362000CB0784F87B1226D46266002D7FF481AE2E
:1036300095E6A26CA2F110011829D7D8092184F8C7
:103640007A3284F87B12C9E7BCF1000F7FF487AEB1
:10365000DBE7E16EB4F8743001EB430C40EA0E2076
:103660000236ACF8040020E73388A363022328461F
:1036700084F87D3274E600F0ADF9206700283FF44D
:103680006EAE226ED0E70022204600F021FA4FF005
:103690000008E06E00F0F2F90122216FC4F86C809E
:1036A000204600F015FA206F00F0E8F9206EC4F80B
:1036B0007080F61B2844A4F87662206600283FF448
:1036C0004EAF4FE7521B1D442266A4F876520020ED
:1036D00046E600BF524946466461746190F87B3209
:1036E0000D2B00F0A8802DE9F041044600F072F99E
:1036F000E066002800F08F8094F87B32072B40F2C0
:103700008C8000232367B4F87832B4F87612002254
:10371000591A9142A4F8742005DD2046FFF7F8FD00
:10372000002840F0968094F87B320D2B04F11806A7
:1037300025D03046FDF794F908B304F176074FF031
:1037400000080FE0A4F8768294F87B52FFF7E0FDC2
:1037500094F87B3200285CD10D2B10D0072D1AD99C
:10376000072B18D839464FF400723046FDF70EFA91
:1037700083B219462046A4F87832002BE2D13046B5
:10378000FDF70AFA374B1B689A0355D50D2384F8C9
:103790007C3284F87B32E06EF0B1B4F87430BBB1A7
:1037A0007F2B09D800EB4303023300F5817500221B
:1037B00023F8022FAB42FBD101460022204600F045
:1037C00087F994F87B32072B01D8DB0743D5E06EED
:1037D00000F054F90023E366206FE0B1B4F87430D0
:1037E0008BB17F2B09D800EB4303023300F58175C1
:1037F000002223F8022F9D42FBD1014601222046E0
:1038000000F066F9206F00F039F900232367BDE866
:10381000F0810D2BB3D0BDE8F081D9077FF571AFF2
:1038200000F0D8F8206700287FF46DAFE06EBDE8A7
:10383000F04100F023B970470B4A138823B1013BD4
:103840009BB21380002BA1D140210848FDF736F828
:103850009CE7BDE8F0810122E16E204600F038F9D6
:10386000B5E700BF308004404843FF1F3433FF1FDB
:103870002DE9F04F00F5807EB1E8A00AB2E84015CE
:10388000C5EA0643C6EA2544C7EA0845C8EA27460A
:10389000C9EA0A47CAEA2948CBEA0C49CCEA2B4ACA
:1038A000A0E8F8078645E7D1BDE8F04F70474FF034
:1038B00000022DE9F00F00F5807C00BFB1E8A00AFE
:1038C000C5EA0203C2EA2544C7EA0205C2EA27465E
:1038D000C9EA0207C2EA2948CBEA0209C2EA2B4A2E
:1038E000A0E8F8078445E9D1BDE8F00F70474FF034
:1038F00000022DE9F00F00F5807C00BFB1E8A00ABE
:10390000C2EA0543C2EA0504C2EA0745C2EA07065D
:10391000C2EA0947C2EA0908C2EA0B49C2EA0B0A2D
:10392000A0E8F8078445E9D1BDE8F00F70472DE91C
:10393000F00F089C00F5007B51F8045B53F8046B12
:10394000C5EA0647C6EA254952F8045B54F8046BF9
:10395000C5EA0648C6EA254AA0E880078345EBD1B8
:10396000BDE8F00F704700BFB1F5607FF0B428BF2D
:103970004FF4607172B6134A134C144B106000225E
:10398000228003F1700443F8042FA342FBD1B1B1AC
:103990000F4E002301275D0903F01F0456F8252070
:1039A00007FA04F4013322438B4246F82520F2D172
:1039B0000023438001338B4200F58270F9D162B657
:1039C000F0BC70475443FF1FCE43FF1F5843FF1FF7
:1039D0005C43FF1FF0B472B6234F244E3C8806F1BF
:1039E000700306EB8400984212D256F8241099B95D
:1039F000021D06F17305631CAD1A03EB950503E088
:103A000052F8041B41B90133AB421C461046F7D1B2
:103A100062B60020F0BC7047B1FA81F34FF000426B
:103A2000DA4021EA0201016001B9013410493C8009
:103A30000A88013294B20C8062B6801B8010C3EBFE
:103A4000401000EB801083000A480B49006803F522
:103A5000FB531C330125C5540D88AA42184488BF66
:103A60000C80F0BC704700BFCE43FF1F5C43FF1FBC
:103A7000D043FF1F5443FF1F5043FF1F428872B6BD
:103A80000378012B03D9013B037062B670475311D1
:103A900070B40C4C0C4D54F823102E88D2434FF0C8
:103AA000004002F01F0220FA02F21143074A44F8D4
:103AB0002310B34238BF2B801388013B138062B6BA
:103AC00070BC70475C43FF1FCE43FF1FD043FF1FF6
:103AD000C368B3B130B401E0DB688BB1187A9042AF
:103AE000FAD158685C7A006950F82450002DF3D15F
:103AF00040F82410087801300870DB68002BEDD105
:103B000030BC7047437A8B4206D90369002253F8D0
:103B1000210043F82120704700207047037C23BB1D
:103B20004368427A5B7A9A421FD830B472B604680E
:103B3000E3682BB3DA6832B119688C4216D01346A9
:103B4000DA68002AF8D1D8600023C360A37A013371
:103B5000A37202684168012313728A7A1A448A7236
:103B600042681372037462B630BC70475D68416886
:103B70008D42E4D1198903899942F4D01346DFE7D5
:103B8000E060E1E7037C10B5002B32D04368427A55
:103B90005B7A9A422DD872B60268D36843B39842D2
:103BA00002D129E0984202D0DB68002BFAD14368A9
:103BB000417A1B69044653F8210048B1FFF75EFFC4
:103BC00072B66368627A1B69002143F8221022688A
:103BD000937A013B937223689A7A02B91A726268E7
:103BE000937A013B937263689A7A1AB10023237423
:103BF00062B610BD1A72F9E7C368D360D7E700BF99
:103C0000084B1A785AB90848084910B4D0240470EF
:103C1000012210460A601A705DF8044B70470020BC
:103C2000704700BF5843FF1F40E400E008E100E098
:103C30001A491B4A1B48F8B50B681B4D046843F032
:103C400080730B60136843F0010313602E6814B98E
:103C500015E064699CB1237A002BFAD023682F68A1
:103C60001B68204698472B68E188DB1B1B099AB22A
:103C70008B42A28088BFE2806469002CEBD10A4BA2
:103C80000A4A1B6810880A4C9B1B1B0999B2834285
:103C9000218001D91180F8BDF8BD00BFFCED00E026
:103CA000001000E04C43FF1F041000E0CC43FF1F56
:103CB000D243FF1FF0B572B699B902688AB1037991
:103CC0000F2B0ED8284C218841FA03F5ED070AD5B1
:103CD00003F1007303F59063B2EB431F03D162B6A7
:103CE000F0BD214C2188002341FA03F212F00102B9
:103CF00007D00133102BF7D162B6002203710260A6
:103D0000F0BD01259D402943218062B6174E184D14
:103D1000184FDFF868E0D9B20171346844F002044A
:103D200034602C6844F002042C60A6F5802640F232
:103D30008244A5F5802503F100733C6003F5906390
:103D4000223E243D0C4C8EF800105B01317029702E
:103D5000217003601A605A609A60DA601A615A61D1
:103D60009A61DA61F0BD00BFD443FF1F4080044078
:103D70003C800440008000401F8000401A800040CA
:103D800003790F2B12D80A4A10B4137072B609497E
:103D900004790A880123A34022EA03030B8062B658
:103DA000102200235DF8044B02710360704700BFCE
:103DB0001A800040D443FF1F10B4EFF3108272B694
:103DC000437F33B9017F012908D0032910D0012393
:103DD000437702B962B65DF8044B7047114C216815
:103DE000A1B1114943610B68836108605861EEE736
:103DF0000E4C216881B10E4943610B6883610860F4
:103E000058610C4B4FF080511960E0E7064B41615F
:103E1000816120601860DAE7054B416181612060B3
:103E20001860EEE7E443FF1FE043FF1FD843FF1F86
:103E3000DC43FF1F04ED00E070B5EFF3108272B6B3
:103E40000C4C206880B10C4E00254369236073B18F
:103E50009D6102B962B6457783689847EFF3108297
:103E600072B620680028F0D102B962B670BD336026
:103E7000EFE700BFD843FF1FDC43FF1FFFF7DCBFA6
:103E8000024A136801331360704700BFF043FF1FFD
:103E9000F8B50E4671B17AB10746144600253B6865
:103EA00016F8011B1B6838469847013C0544F6D1BB
:103EB0002846F8BD0846F8BD1046F8BD00B5064ACC
:103EC000036812885B6883B001A9ADF80420022260
:103ED000984703B05DF804FB2C6C0000F0B5074672
:103EE0008BB0002A33D0012A08BF0A2251B3212403
:103EF00000E0F4B2B1FBF2F502FB1511C8B20929DA
:103F000000F1300198BFC8B20AA988BF37302144F8
:103F100088BFC0B201F8240C661E2946002DE8D1E6
:103F200033B1013CE4B20AAB23442D2203F8242C24
:103F30003B6801AA11195B683846C4F12202984710
:103F40000BB0F0BD30228DF825202124E8E703686E
:103F5000C9B21B6898470BB0F0BD00BF0029BABFBB
:103F600049422D2300230A22FFF7B8BF374A3849B8
:103F700013681B06FCD40B6813F08003F8D172B6EB
:103F800034490A78002A5FD0334A3448F0B4344CBC
:103F9000176806682568D4680C303E4414320068FF
:103FA0001268304F35442C4420440244C2F34E0280
:103FB0002D4E2E482E4D2F4C42F400423A60376869
:103FC00006682D682C4A24680C303E44006812684C
:103FD0002A4F35442C4420440244C2F34E02284E5A
:103FE0002848294D294C42F400423A603768066857
:103FF0002D68274A24680C303E4400681268254F1B
:1040000035442C4420440244C2F34E02224E23483D
:10401000234D244C42F400423A60376806682D680C
:10402000214A24680C303E440068126835442C4410
:1040300020440244C2F34E021C4842F40042026093
:104040000B7062B6F0BC704762B6704724B0034094
:1040500024B00B40EA43FF1F38B003403CB003409C
:1040600040B003402CB0034058B003405CB0034064
:1040700060B0034064B003406CB0034030B0034014
:1040800038B00B403CB00B4040B00B4044B00B404C
:104090004CB00B402CB00B4058B00B405CB00B4008
:1040A00060B00B4064B00B406CB00B4030B00B40C4
:1040B00030B42948294A2A4B2A4D6024E121047052
:1040C00011701B78284C082B30D00A2B2748284920
:1040D00037D00C2B0CBF35225D2212232A602360BF
:1040E00002600B60234B24491B78244ABBB1012397
:1040F0000B601360224B23491B78234A012B26D9DE
:10410000042B0FD9082B1ED9102B94BF862387238D
:104110000B6013601D4B01221A7030BC70470B609E
:104120001360E7E784230B601360F3E700F58E204C
:104130000F490830212213232A60236002600B609C
:10414000D0E73922F7E785230B601360E2E780238D
:104150000B601360DEE700BF0040074001400740EE
:104160007833FF1F08B003400CB0034008B00B4089
:104170000CB00B40ED43FF1F20B0034020B00B40BC
:104180007933FF1F24B0034024B00B40EA43FF1FE4
:1041900047282FD8334B2DE9F0411E5CFF2E2BD042
:1041A000314B1B78002B2AD132062CD472B62F4DFE
:1041B0002F4C2F46012326602B7062B672B62368FF
:1041C0001B060CD43B781BB9F4E72B78002BF1D0FD
:1041D00062B601F093FB72B623681806F5D5254B3D
:1041E0001B6800222A7062B6234A107843FA00F056
:1041F000BDE8F081002070470020BDE8F081FFF7A6
:10420000B5FE3206D2D572B61C4DDFF87C801C4C50
:1042100006F04007FFB206F03F06D8F80030DFB1E5
:1042200023F01003C8F8003001232660134A2B70D6
:1042300062B672B6236819060CD413781BB9ECE782
:104240002B78002BE9D062B601F058FB72B62368D8
:104250001B06F5D50B4BC3E743F01003C8F800303D
:10426000E2E700BF306C0000EA43FF1FEC43FF1F92
:1042700000B0034010B00340E943FF1FEB43FF1FB2
:1042800000B00B4010B00B400CB00B4008B5FCF771
:10429000FFF8FCF741F901F031FBFAE7844641EA07
:1042A000000313F003036DD1403A41D351F8043BAE
:1042B00040F8043B51F8043B40F8043B51F8043B00
:1042C00040F8043B51F8043B40F8043B51F8043BF0
:1042D00040F8043B51F8043B40F8043B51F8043BE0
:1042E00040F8043B51F8043B40F8043B51F8043BD0
:1042F00040F8043B51F8043B40F8043B51F8043BC0
:1043000040F8043B51F8043B40F8043B51F8043BAF
:1043100040F8043B51F8043B40F8043B51F8043B9F
:1043200040F8043B51F8043B40F8043B403ABDD20E
:10433000303211D351F8043B40F8043B51F8043BB0
:1043400040F8043B51F8043B40F8043B51F8043B6F
:1043500040F8043B103AEDD20C3205D351F8043B3F
:1043600040F8043B043AF9D2043208D0D2071CBF0B
:1043700011F8013B00F8013B01D30B880380604634
:10438000704700BF082A13D38B078DD010F00303AA
:104390008AD0C3F10403D21ADB071CBF11F8013B1A
:1043A00000F8013B80D331F8023B20F8023B7BE769
:1043B000043AD9D3013A11F8013B00F8013BF9D294
:1043C0000B7803704B7843708B788370604670472E
:1043D00008B5104C08E0236859050DD423681A0568
:1043E0000FD42368DB0411D423685803F3D500F0FD
:1043F000F3FA23685905F1D500F00EF823681A0581
:10440000EFD500F009F82368DB04EDD500F004F8DF
:10441000EAE700BF3480044008B5FFF7D9FF00BFCA
:10442000014B10221A80704700200540704700BFE2
:10443000094908B50B6830B16A461844A2F5005224
:10444000904202D20860184608BD01F067FD0C23B7
:1044500003604FF0FF3008BD7C33FF1FFEE700BF55
:10446000084A1378802B01D0002070470649074B7B
:1044700007480860002119701378802BFCD00120B8
:10448000704700BF03E007404480044001E007405C
:1044900000002822094A1378012B01D00020704720
:1044A00003F1804303F5FC23602119701378802BFE
:1044B000FCD1034B034A1A600120704703E0074018
:1044C0004480044000000602F0B44D1E2E46002435
:1044D00000E00134B0FBF2F302FB1300092800F105
:1044E00030078ABF3730F8B2C0B206F8010F18465D
:1044F000002BEED10A1953704CB1107815F8016FEA
:1045000028700133E01A834202F80169F5DB08469E
:10451000F0BC704710B4114B53F8302092F8804231
:1045200034B1012379B182F880305DF8044B7047D3
:1045300003EBC0035B681A6851B922F002021A60EB
:104540005DF8044B704782F800315DF8044B70470A
:1045500042F003021A605DF8044B7047786C00006B
:104560001C4A02EBC00301295B6811D004291BD04F
:1045700052F83000002280F8802229B1022920D090
:10458000032922D01A6070474FF480721A60704776
:1045900052F830004FF4A27280F880121A601A6844
:1045A00022F020021A60704752F830104FF4A272C5
:1045B000012081F880021A601A6842F020021A6015
:1045C000704740F203121A6070474FF481721A600C
:1045D000704700BF786C000030B4054B054D064CA9
:1045E000002210211A602A602060196030BC7047D8
:1045F00014D0034004D0034000D003403F2801D82A
:10460000FFF788BF704700BF3F2801D8FFF7A8BF5A
:10461000704700BF2DE9F843054672B6224F234B81
:10462000234A1B683C68126862B6520102D5322BDD
:1046300088BF0134B5B3C3F52F3303F21F331D4ECA
:10464000DFF86890DFF868809B084FF47A72A6FB69
:10465000031302FB04F404EB930472B6D9F80010C0
:104660003A68D8F800E062B6C1F52F3303F21F3381
:104670009B08A6FB03031EF0806FC4EB93034FF46B
:104680007A7002D0322988BF013200FB0233B3F5C1
:104690007A7F04D3013D05D004F57A74DDE701F09B
:1046A0002DF9DAE7BDE8F883F043FF1F18E000E0DA
:1046B00004ED00E0176CC116F8B54E4B4E48DFF81C
:1046C0005CC14E4C4E49DFF858E14E4E4E4D4F4FB7
:1046D0004FF000621A604FF080521A604FF00052A3
:1046E0001A604FF080421A604FF000421A600022B8
:1046F000026028234EF6FF70CCF80000CEF80030A0
:1047000023600EF5012E0B6033602B6006F500264A
:104710003B6005F50025A36207F500278B6204F5D1
:10472000012401F5012106F6E87605F6E87507F59E
:104730007F6710310EF1100E203433602B60CEF8FD
:1047400000303B600B602360314CBB618B61092101
:104750002160A7F5002704F58054203F08343A6013
:104760002060BB60E36047F8041C04F5FD2407F5F6
:10477000FE27043704F2FC7422603860A360FB60FB
:1047800044F8041C083404F6FC74C7F8FC2F2060BD
:10479000A4F5E124A4F2DC7433602B60C7F8F81FA1
:1047A00021681C4841F40071216001681A4C0EF523
:1047B0007F4E0EF1E80E07F5883706F5803605F5D1
:1047C000803541F000710160CEF8002047F6FF719E
:1047D0000822396033602B602260FFF769FC1920E2
:1047E000FFF718FF00F05EFE40F21310BDE8F8403E
:1047F000FFF710BF04E100E0048003401480034091
:104800001C800340248003402C80034034800340FC
:10481000008003400480044000900C400880034066
:104820000C800340431E032B14D872B60A4951F87A
:10483000230068B170B4094C058834F81320466829
:1048400041F82360521B24F8132062B670BC7047F5
:1048500062B67047002070474C44FF1F4045FF1F61
:10486000013803280BD872B6074B53F8203043B1F8
:1048700000205B680130002BFBD162B6704700203E
:1048800070471846F9E700BFA044FF1F30B472B666
:104890002B4A13781D0706D52A4B196A002936D0F2
:1048A000996A002941D053781C0706D5254B196C0D
:1048B00000293ED0996C002939D09378190705D585
:1048C000204B196E002936D0996E89B1D3781B0719
:1048D00007D51C4BD3F880207AB3D3F88820112158
:1048E0003AB162B6184B00221A7030BC00F076BEA6
:1048F0000D21154C154D227843F8315003EBC103BF
:104900000830013A5860227062B630BC7047042209
:104910000D4C0F4D217843F8325003EBC2030830A1
:104920004A1E5860227062B6EFE70521E1E70921CF
:10493000DFE70822ECE70C22EAE71022E8E700BFF5
:10494000A06E00000000FF1FC944FF1FC800400008
:1049500088004000431E032B1DD81B4A400140F035
:10496000100030B4104472B6184CE25C032A1BD815
:10497000DFE802F00212151703220D88E25410F04E
:10498000080F14BFC823882343EA05430831036096
:10499000416062B630BC704708300222EDE7052264
:1049A000EBE708300422E8E7094A52F8230038B15F
:1049B000084A52F82300416042F8231062B6E9E742
:1049C00042F82310034AF7E70000FF1FD844FF1FF7
:1049D000A044FF1FB044FF1F2DE9F04FDFF818B3CC
:1049E000DFF818A387B044E0AE4F4FEA930807EB17
:1049F000C809013ED9F8042003F00803F6B2A2F179
:104A0000080003F0FF04002B40F0048157F8383011
:104A10001B0C99B222F8081C002B00F0F280A24B6C
:104A200022F8064C42F8044C53F82620002A00F0E5
:104A30006E819E4D55F8263058609D4C45F82600F5
:104A400034F81630194424F8161000F0A7FD002899
:104A500000F05681974A984B19F0080F00F10800B2
:104A600018BF1346C9F8040047F8383008238BF8FC
:104A700000309BF80040E4B261071BD58F4B1B78D8
:104A8000ABB18F490A7802F0FF032AB1013BDBB2D8
:104A90000B70002B00F0EF848A490A7802F0FF03C4
:104AA0002AB1013BDBB20B70002B00F0F78004232E
:104AB0008BF8003004F0080303F0FF02002B00F035
:104AC000D6809AF80030DBB21E098DD19C08DFF841
:104AD000D49159F8342009EBC401C2F38302013A9E
:104AE00049680C2A7ED8DFE802F081817D7D7D7DDA
:104AF0007D7D477D7D7D07000868734D4A68734F53
:104B0000734E286081B240F281606A4B6A604FF058
:104B1000010E0022814249F834303A60C9F8102071
:104B2000C9F8182086F800E05E4C00F2F480B1F578
:104B3000D06F80F07883B1F5817F00F0628300F25E
:104B40008782802900F0EC82822940F01E83A988A8
:104B500001F07F01042900F218835E485E4C890051
:104B60000844227062700278930740F1798384F8D8
:104B700000E04FF0020ED8E2544F3A6842B3574B70
:104B8000534E5749188834780D784028864645F0AA
:104B9000020828BF4FF0400E002C84F0010434704E
:104BA000CEEB00000CBF8824C82409EBC80680B2F5
:104BB00085F0010544EA0E447260188049F83840D7
:104BC00072440D7018B9BEF1400F18BF00223A6050
:104BD0003D4B1A88B2F5A06F04D100219A78597024
:104BE000404B1A70404A012313703FE7364A15883C
:104BF00042F22100854200F0FF812E4A49F834201C
:104C0000F0E72C4A2C4B19F0080F18BF134647F851
:104C100038302BE700F0E2FC344A354952F82630B0
:104C2000002B00F0B68158688C5D42F8260003F135
:104C30000802C9F80420032C05D8DFE804F0120F9D
:104C4000150204228A551A8819F0080F0CBF882310
:104C5000C82343EA024347F8383007E702228A555F
:104C6000F1E703228A55EEE705228A55EBE7E007D4
:104C700000F11A82210600F14982A20706D51D4AD9
:104C80001D4913780220DBB213700870E30602D5C9
:104C9000194B10221A7007B0BDE8F08F00F00AFE21
:104CA00005E700BF0000FF1F4C44FF1FF843FF1F34
:104CB0004045FF1FC800400088004000D444FF1F4B
:104CC0005D44FF1FDC44FF1FC044FF1FF443FF1F70
:104CD0005C44FF1FC0200740CC44FF1F0844FF1F57
:104CE000C844FF1F9820074094200740A044FF1F9E
:104CF000D844FF1F882007408020074090200740AD
:104D0000AB4A47F83800137801331370AEE643F826
:104D10002600A84D91E642F22100814200F0358143
:104D200000F2AF81B1F5086F00F01B82B1F5106F92
:104D300040F02B82226AA049A8780870120600F180
:104D40004583D9F828209D49130600F13A83D9F804
:104D500030209A49150600F12F83D9F83820974959
:104D6000140600F12483D9F840209449100600F17C
:104D70001983D9F848209149120600F10E83D9F819
:104D800050208E49130600F10383D9F858208B492F
:104D9000150600F1F882D9F860208849140600F160
:104DA0002983D9F868208549100600F11E83D9F8B7
:104DB00070208249120600F11383D9F878207F49C8
:104DC000130600F10883D9F880207C49150600F10C
:104DD0001C83D9F888207949140600F11083D9F88A
:104DE00090207649100600F1C882D9F898207349BE
:104DF000120600F1BC827248724A734901907348EE
:104E00006C4D734C04970023059602958046174617
:104E10000E461D460394386828B1446800F0DEFB56
:104E20002046002CF9D100233B60029B30681A46D3
:104E3000002342F8253028B1446800F0CFFB20461B
:104E4000002CF9D100223260019A98F80030114606
:104E5000002241F8042B039A0191023B4FF000011C
:104E600022F81510032B09D8DFE813F04B010400DA
:104E70004B0104004FF0010388F800300135042D88
:104E800007F1040706F1040608F10108C3D1514CEB
:104E9000514B2278464D049F059E002129701A70BF
:104EA000130700F14F8262784C49DFF810810A70D5
:104EB00010074FF00001C9F83010C9F8381000F1A0
:104EC0002B824749A2780A700021C9F85010C9F80E
:104ED00058101107DFF8E48000F1DC81E2784149E5
:104EE000364C0A7000211207C9F87010C9F8781002
:104EF00000F1B98133780193002183F00102C9F8F0
:104F00009010C9F89810002002908046844604460C
:104F100035490D7845F0020E09EBCE030393019B52
:104F2000002B039B5C600CBF8824C82444EA080360
:104F300085F0010449F83E3032700C70DFF87CE0F7
:104F40002A4BDFF8A480002840F02681BCF1400FF6
:104F50001BD144F0020C09EBCC03029CDFF85CE0AF
:104F60005C60002A40F02E81020442F088029DF825
:104F700004304EF83C20044433700D702346402822
:104F800003D100201A4A3B6010801A4A0123137093
:104F900028E68B5D032B00F22D8101A252F823F04D
:104FA0006D4A00006D4A0000F7500000FD500000FF
:104FB000C944FF1FF843FF1FD444FF1F0000FF1F19
:104FC000B044FF1F4C44FF1FA044FF1FD844FF1FE5
:104FD0004045FF1FA06E0000C4200740C8200740C6
:104FE000CC200740D0200740C844FF1F5C44FF1F6F
:104FF0000844FF1F94200740928892B9B14A0D7867
:105000004878157050708D78C8789570D070106899
:105010000D79157186284D7989795571917100F056
:10502000A580A949A94E0A78307882F001050028A8
:1050300042F002020D700CBF8821C82149F83210DD
:1050400009EBC20280F00100002130705160D4E50C
:1050500040F20232914240F08D80A98801F07F0138
:10506000042900F292806A88002A40F08E809848D5
:10507000CDF804E089000844017841F00201017094
:1050800041E742F2212081427BD1A988002940F0EA
:10509000E480904B904A9148AC781D681560CDF83B
:1050A00004E00A4604702EE78D4B8E4886491A614B
:1050B0004FF0020E80F800E0854F0A708A491960AF
:1050C00099608A4E8A4D8B4C9A610D213970FF216F
:1050D0003170DFF840E229702270874D874A8EF8E0
:1050E00000109F27012406F8047C5D600470DA60DC
:1050F00007B0BDE8F08F00238B55B7E401238B5533
:10510000B4E44FF0000388F80030B7E67049784BFC
:1051100080220D2008701A70A2077FF5B7ADAEE5AA
:10512000774C4FF0020E22706270EA88724580F070
:10513000A38165490D78402A944645F0020E28BFA8
:105140004FF0400C04EB0C0309EBCE00029301235B
:1051500044604FEA0C48CCEB020001930022C824C3
:10516000E4E6684A664C12782270DEE7664A0F2150
:10517000117056E7B1F5A06F07D10123002201930A
:10518000C1E642F221329142F7D0514A0F23137007
:10519000544A0123137025E540287FF6DAAE44F027
:1051A00002040EEBC401029E4E60BAB19DF80410D9
:1051B000564A19703346403888F8005040334EF84C
:1051C0003420DFE69DF8043033700204029B0D703A
:1051D00042F0C80203444EF83C20D0E69DF804108B
:1051E0001970029B404A88F80050403840334EF80E
:1051F0003420C7E619F0080F0CBF022303238B5598
:1052000034E4A98801F07F010429BED86A88002A05
:10521000BBD12F48CDF804E089000844017821F083
:10522000020101706FE63A4A5468002CADD06888DC
:10523000B5F804E003E00C325468002CA5D01388C4
:105240008342F8D153887345F5D1000A03280CBF77
:1052500094F800E0B2F808E067E7CDF804E052E621
:105260004FF0020E61E700F099F9002800F0F1809C
:1052700008301D4AC4F88400C4F8802000F08EF97C
:10528000002800F0E0800830204AC9F88C00C9F8F6
:1052900088202FE600F082F9002800F0E680083030
:1052A000114AC8F86400C8F8602000F077F90028B7
:1052B00000F0D5800830154AC9F86C00C9F868209C
:1052C0000CE600BF4845FF1FC844FF1F5C44FF1F9A
:1052D000C0200740F043FF1F5045FF1FEC44FF1F55
:1052E0000000FF1F942007408800400088200740EE
:1052F00080200740982007400C44FF1F6044FF1F98
:10530000CC44FF1FD444FF1F5D44FF1FC800400072
:10531000A46E00008C20074000F040F9002800F047
:105320008C8008305D4AC8F84400C8F8402000F07E
:1053300035F900287BD00830594AC9F84C00C9F823
:105340004820BEE500F02AF900286AD00830534A08
:10535000C9F82400C9F8202000F020F900285AD00C
:1053600008304F4AC9F82C00C9F828209BE5D1F82D
:105370009C00083800F032F93DE5D1F89400083877
:1053800000F02CF931E5C86D083800F027F902E586
:10539000486D083800F022F9F7E4C86C083800F0CE
:1053A0001DF9ECE4486C083800F018F9E1E4C86B2A
:1053B000083800F013F9D6E4486B083800F00EF90D
:1053C000CBE4C86A083800F009F9C0E4606A08381C
:1053D00000F004F9B5E4C86F083800F0FFF8F2E413
:1053E000486F083800F0FAF8E7E4C86E083800F0B3
:1053F000F5F8DCE4486E083800F0F0F8D1E4D1F8B4
:105400008C00083800F0EAF8E9E4D1F884000838A4
:1054100000F0E4F8DDE42A78C9F8280001322A70A7
:1054200041E52A78C9F8200001322A7094E72A78E9
:10543000C9F8480001322A7043E52A78C8F84000CC
:1054400001322A7073E72A78C9F8880001322A707D
:1054500050E52A78C4F8800001322A700EE72A78D5
:10546000C9F8680001322A7038E52A78C8F8600067
:1054700001322A7019E700BEBEF1400FF44628BF82
:105480004FF0400C04EB0C0302930123CCEB0E0015
:105490004FEA0C48002201933AE500BF8800400023
:1054A000C80040002DE9F041274C00F09FFA00228F
:1054B00004F1A00023461A605A60083383424FF07B
:1054C0000001F8D12148224A0368DFF89CE0214E10
:1054D000214D224FDFF894C0DFF8948043F48023FD
:1054E0000360136843F04073136003238EF80030A9
:1054F000A023337002F5C922C4F3072300F5283036
:105500002B708030C4F3074310323B70240EFF230E
:105510000470134D8CF80030124888F80030137076
:10552000012306F8AC3C4FF400140EF8441C70261E
:10553000102107F82C3C2E70046082F8F810AEF1B0
:10554000440EBDE8F08100BF0000FF1F348004401E
:1055500000D80040402107409C200740B020074071
:1055600035E400E004E100E04421074080200740EA
:105570008820074000F0A2B800F07AB800F054B8D4
:1055800000F08EB800F06AB900F044B90846114640
:1055900000F0B0B8084600F031B900BF72B60D484F
:1055A0000268B2FA82F30B2B10DC4FF00041D940B5
:1055B00022EA0102026062B6074803EBC303DB0084
:1055C000C2180021C15010465160704762B60020D9
:1055D000704700BF9033FF1FD02FFF1F0D4B0E4AA7
:1055E000C31AA2FB03231B090B2B0CD80B4A1278FE
:1055F00052B972B60A484FF00041026821FA03F32B
:105600001A43026062B67047064A1278002AF0D048
:10561000FFF73CB9D02FFF1F398EE338C944FF1F75
:105620009033FF1FD444FF1F38B50F4D286878B161
:1056300043880288C118013393420C7A02D2438016
:10564000204638BDFFF7CAFF002320462B6038BD37
:10565000064B1B782BB10320FFF7E4F828600028E5
:10566000E6D14FF0FF3038BDE844FF1FD444FF1FA0
:1056700010B5094C206818B143881844007A10BD51
:10568000064B1B782BB10320FFF7CCF820600028D5
:10569000F2D14FF0FF3010BDE844FF1FD444FF1F8C
:1056A000044B054A1B6890881BB11A885B88D31A83
:1056B00018447047E844FF1F4045FF1F0B4B1B7801
:1056C0009BB110B50A4C206848B1FFF787FF002353
:1056D00003202360FFF7A6F830B1FFF77FFF032018
:1056E000FFF7A0F80028F8D110BD7047D444FF1F81
:1056F000E844FF1F2DE9F04FDFF8F89083B0012256
:1057000089F80020019169B3DFF8EC80354F019EE4
:105710008346D8F80000B0B3334D4488C4F140014B
:10572000B14228BF314604EB010E00221FFA8EFE63
:105730002A70761AA0F802E000F1080251B1013C8B
:10574000224459441BF8014B02F8014F8B45F9D113
:10575000B0F802E0BEF13F0F0BD8244A05211170CA
:10576000002ED6D10198002389F8003003B0BDE89F
:10577000F08F4022028001460420FFF7EBF8002260
:10578000C8F80020E9E73A7822B3194C164D4FF0DB
:10579000010A07E0013C16D02A78A2B900F0AEF861
:1057A0003A78BAB10420FFF75BF80728F2D889F8F5
:1057B00000A0FFF7F3FEC8F800000028ADD10D4BA4
:1057C000013C1870E8D101234FF0FF302B7003B07B
:1057D000BDE8F08F00234FF0FF3089F8003003B0B0
:1057E000BDE8F08FD444FF1FE444FF1FDC44FF1FDB
:1057F00021480100DD44FF1FE044FF1F00B583B0D6
:1058000002AB012103F8010D1846FFF773FF03B047
:105810005DF804FB38B50E4D0E4C2868012323704B
:1058200028B1408800232370C0F1400038BD0A4BE6
:105830001B7813B90020207038BD0420FFF710F842
:105840000728F7D8FFF7AAFE28600028E9D1F1E77A
:10585000E044FF1FDD44FF1FD444FF1FF8B5114B88
:105860001B788BB1104E114D346801272F7064B135
:105870000F4A638800271770214623800420FFF712
:1058800069F8376000232B70F8BDFFF787FE084BDF
:1058900028B1014604201C70FFF75CF8F2E71F7086
:1058A000F0E700BFD444FF1FE044FF1FDD44FF1FAB
:1058B000DC44FF1F38B50E4B1B7873B90D4C2168C3
:1058C00061B103F0FF054B880B800420FFF742F81D
:1058D000256038BD084B01221A7038BDFFF75EFE07
:1058E0000028F7D00146BDE838400420FFF732B861
:1058F000DD44FF1FE044FF1FDC44FF1F2DE9F84398
:10590000314E337893B1314F3A787AB90122D907C1
:105910003A7036D49A0719D400225B073A7005D53D
:105920002B4B1A6812B1EFF305820AB1BDE8F88378
:10593000EFF3108172B6186818B1264C2278002A4D
:105940002ED00029F2D162B6BDE8F883DFF890804E
:1059500098F80020002ADFD0DFF88890002405E0C6
:10596000013498F80030E4B2A34212D959F8245017
:105970002B6828461B6998470028F1D02B69984767
:10598000EEE7FFF78DFEC8B9134B1B781BB93378D0
:10599000C0E73378C0E7337803F0FE033370B9E72C
:1059A00045691D60012323705DB1AA6101B962B62A
:1059B00000254577836898472570B7E700F014F80D
:1059C000E2E7064B1D60F1E79433FF1FED44FF1F34
:1059D000E443FF1FE843FF1F9533FF1FE043FF1F12
:1059E0000845FF1FF044FF1F704700BF10B584B08B
:1059F00072B6FEF735FD184A184B1949116070222E
:105A000080211A701A46197013781B06FCD5154BA5
:105A10001C68FEF73FFD62B6134B9C429CBF04EB33
:105A2000840464002046114C01A90A22FEF74CFDB3
:105A300001A92046002311F8012B01333AB10A2BAA
:105A400020F8022FF7D11623237004B010BD5B009D
:105A5000DBB2237004B010BD04000240000002401D
:105A6000000007410C0002407F9698002434FF1F7D
:105A70000B460146184600F04BBA00BF90F839209B
:105A800090F83800101A704790F8383090F83920A4
:105A90009A4205D95A1C034480F83820187E704772
:105AA0004FF0FF30704700BF90F8383090F8392041
:105AB0009A4286BF1B18187E4FF0FF30704700BF18
:105AC000704700BF38B50546B0F85E0090B195F854
:105AD0005D301446C3F1210294420CD805F13B001D
